:1000000000EF5FF01200FFFFFFFFFFFFFFFFFFFFAA
:1000180016EF00F01200FFFFFFFFFFFFFFFFFFFFDB
:10002A000000D8CFE4FFE0CFE4FFE46EDACFE4FFCC
:10003A00E2CFDAFFE9CFE4FFEACFE4FFF6CFE4FF4D
:10004A00F7CFE4FFF8CFE4FFF5CFE4FFF3CFE4FF07
:10005A00F4CFE4FFFACFE4FFFBCFE4FF00EE42F077
:10006A00140EE80403E3EECFE4FFFBD700EE56F0EC
:10007A000A0EE80403E3EECFE4FFFBD7E652D9CF3A
:10008A00E6FFE1CFD9FFE652F2A216D0010EE66EE4
:10009A00E66A390EE66E000EE66E4BEC0FF0E5529C
:1000AA00E552E552E552165002E0000E01D0010E6B
:1000BA00166E010E1B6EF292EBEC0EF0F2A44BD010
:1000CA00145002080AE2146A005007E0015002E0E4
:1000DA00016A02D0010E016E006A1C5004E01D5034
:1000EA0001E1807A01D0808A1F5002E0807801D035
:1000FA0080881450E66E85EC05F0E552E66ED9CF9D
:10010A00E9FFDACFEAFFE552E750EF6ED9CFE9FF10
:10011A00DACFEAFFEF501CE0D9CFE9FFDACFEAFFE6
:10012A00EFCF60F0616A60BE616860C0E6FF61C0DF
:10013A00E6FFF40EE66E2D0EE66E000EE66EFE0E7D
:10014A00E66EE6680BEC18F0626E070EE15E62502E
:10015A00142A202AF294E552E552E7CFD9FFE55254
:10016A0000EE5FF00A0EE80403E3E5CFEDFFFBD7EC
:10017A0000EE55F0140EE80403E3E5CFEDFFFBD7DC
:10018A00E5CFFBFFE5CFFAFFE5CFF4FFE5CFF3FFBD
:10019A00E5CFF5FFE5CFF8FFE5CFF7FFE5CFF6FFAF
:1001AA00E5CFEAFFE5CFE9FFE5CFDAFFE550E5CF96
:1001BA00E0FFE5CFD8FF1000E10EE66E2D0EE66EE9
:1001CA00000EE66EFE0EE66EE6680BEC18F0566E52
:1001DA00050EE15E56503CC03FF03DC040F03EC0C7
:1001EA0041F0000EE66EE66A4050E66EE66A41505D
:1001FA00E66EE66AC80EE66E2D0EE66E000EE66E36
:10020A00FE0EE66EE6680BEC18F0566E0B0EE15E1B
:10021A0056501200B50EE66E2D0EE66E000EE66E14
:10022A00FE0EE66EE6680BEC18F0566E050EE15E01
:10023A0056501D502FE0010E1E6E39C03FF03AC0D5
:10024A0040F03BC041F0030EE66E010EE66E3F0E33
:10025A00E66E000EE66E4BEC0FF0E552E552E55203
:10026A00E5523F50E66EE66A4050E66EE66A415055
:10027A00E66EE66AA60EE66E2D0EE66E000EE66ED7
:10028A00FE0EE66EE6680BEC18F0566E0B0EE15E9B
:10029A00565010D01E6AA10EE66E2D0EE66E000EA6
:1002AA00E66EFE0EE66EE6680BEC18F0566E050E6C
:1002BA00E15E56509D0EE66E2D0EE66E000EE66E5F
:1002CA00FE0EE66EE6680BEC18F0566E050EE15E61
:1002DA0056501200D9CFE6FFE1CFD9FF060EE1262C
:1002EA00D950FE0FE96EFF0EDA20EA6EEF50030DC9
:1002FA00F3CFE9FFF4CFEAFF390EE926000EEA222E
:10030A00EE52EF50586E596AD950FE0FE96EFF0E41
:10031A00DA20EA6EEF50030DF3CFE9FFF4CFEAFFDC
:10032A00390EE926000EEA22020EE926000EEA221A
:10033A00EF503C0DF3505824566EF4505920576E26
:10034A00D950020FE96EDACFEAFF56C0EEFF57C066
:10035A00EDFFD950FD0FE96EFF0EDA20EA6EEF507D
:10036A00030DF3CFE9FFF4CFEAFF390EE926000EB9
:10037A00EA22EE52EF50586E596AD950FD0FE96ED3
:10038A00FF0EDA20EA6EEF50030DF3CFE9FFF4CF48
:10039A00EAFF390EE926000EEA22020EE926000ECD
:1003AA00EA22EF503C0DF3505824566EF45059206F
:1003BA00576ED950040FE96EDACFEAFF56C0EEFF46
:1003CA0057C0EDFFD950020FE96EDACFEAFFEECF40
:1003DA0056F0EFCF57F0D950040FE96EDACFEAFFA3
:1003EA00EECF58F0EFCF59F05650585C5750595845
:1003FA001DE3D950040FE96EDACFEAFFEECF58F0C9
:10040A00EFCF59F0D950020FE96EDACFEAFFEE507A
:10041A00585C566EEE505958576ED9CFE9FFDACF6D
:10042A00EAFF56C0EEFF57C0EDFF20D0D950040FA7
:10043A00E96EDACFEAFFEECF58F0EFCF59F0A00E0F
:10044A005826050E5922D950020FE96EDACFEAFF73
:10045A00EE50585C566EEE505958576ED9CFE9FF98
:10046A00DACFEAFF56C0EEFF57C0EDFFD9CFE9FF5A
:10047A00DACFEAFFEECF56F0EFCF57F056C0F3FFD0
:10048A0057C0F4FF060EE15C03E200D0E16AE552D0
:10049A00E16EE552E7CFD9FF1200E66A010EE66E79
:1004AA0019DFE552E552F3CF56F0F4CF57F03C0E80
:1004BA00565C000E575802E3000E01D0010E1C14C0
:1004CA0026E0010E1D6EE66A020EE66E03DFE552B5
:1004DA00E552F3CF56F0F4CF57F0030E565C000EF8
:1004EA00575814E2920EE66E2D0EE66E000EE66E78
:1004FA00FE0EE66EE6680BEC18F0566E050EE15E2F
:10050A00565039A002D0818601D0819602D01D6A48
:10051A0081961200D9CFE6FFE1CFD9FFE652F29ECB
:10052A00D950FE0FE96EFF0EDA20EA6EEF500F0B7C
:10053A00E66E020EE66E800EE66E6CEC17F0E55281
:10054A00E552E552E66ED9CFE9FFDACFEAFFE55286
:10055A00E750EF6EF28EE552E552E7CFD9FF12006F
:10056A00D9CFE6FFE1CFD9FF0D0EE126D9CFE9FFBA
:10057A00DACFEAFFEF6AD950010FE96EDACFEAFF64
:10058A00EF6AD950020FE96EDACFEAFFEF6AD95063
:10059A00030FE96EDACFEAFFEF6AD950040FE96E6A
:1005AA00DACFEAFFEF6AD950050FE96EDACFEAFF30
:1005BA00EF6AD950060FE96EDACFEAFFEF6AD9502F
:1005CA00070FE96EDACFEAFFEF6AD950080FE96E32
:1005DA00DACFEAFFEF6AD950090FE96EDACFEAFFFC
:1005EA00EF6AD9500A0FE96EDACFEAFFEF6AD950FB
:1005FA000B0FE96EDACFEAFFEE6AED6A37EC0DF01F
:10060A007DEC0DF0D9CFE9FFDACFEAFFEF6AD950D6
:10061A00010FE96EDACFEAFFEF6A010E1A6E196A64
:10062A00156A166E176E016A186E1C6A006A1D6AD0
:10063A001E6A808AE66ADBEC1AF0E55278DBE66E1F
:10064A00D950090FE96EDACFEAFFE552E750EF6EAB
:10065A00B3DDF28ED950020FE96EDACFEAFF38C065
:10066A00EFFFFCEC0EF0386ED950020FE96EDACFCC
:10067A00EAFFEF503818E66ED950030FE96EDACF69
:10068A00EAFFE552E750EF6E1D500AE0D9CFE9FFC5
:10069A00DACFEAFFEF50200B000801E2807A01D09E
:1006AA00808A1B5048E0F9DE010E176E39A007D088
:1006BA0030EC1BF0000902E135EC1BF03BD030ECCA
:1006CA001BF0000937E12DEC1AF0F3CF56F0F4CF06
:1006DA0057F0D9500B0FE96EDACFEAFF56C0EEFF9A
:1006EA0057C0EDFFD9500B0FE96EDACFEAFFEECF14
:1006FA0056F0EFCF57F0060E0F0B05E0D8905732A1
:10070A005632E806FBE10F0ED8805656000E5756B1
:10071A00D9500B0FE96EDACFEAFF56C0EEFF57C089
:10072A00EDFFD9500B0FE96EDACFEAFFEF50E66E14
:10073A00F1DEE5521B6AD950030FE96EDACFEAFF00
:10074A00EF50000801E3E1D01A5001E083D0D950FC
:10075A00030FE96EDACFEAFFEF50400B16E038BC20
:10076A0014D0196A010E1A6ED950040FE96EDACF45
:10077A00EAFFEF6AD9500A0FE96EDACFEAFFEF50C3
:10078A00186E156AC3EC08F017DDD950030FE96E2D
:10079A00DACFEAFFEF50100B1DE038B81BD0196A08
:1007AA00010E1A6ED950050FE96EDACFEAFFEF6A29
:1007BA00156A3AEC08F0900EE66E2D0EE66E000E03
:1007CA00E66EFE0EE66EE6680BEC18F0566E050E47
:1007DA00E15E565038A21ED0010EE66E020EE66E9B
:1007EA001950030DF3CF56F0F4CF57F0390E5626B1
:1007FA00000E572256C0E6FF57C0E6FF4BEC0FF03B
:10080A00E552E552E552E552D950060FE96EDACFC4
:10081A00EAFFEF6A38A41DD0010EE66EE66E1950A3
:10082A00030DF3CF56F0F4CF57F0390E5626000ECB
:10083A00572256C0E6FF57C0E6FF4BEC0FF0E552D1
:10084A00E552E552E552D950070FE96EDACFEAFFD1
:10085A00EF6A5AD0D950030FE96EDACFEAFFEF50A8
:10086A00400B26E038BC24D01C5011E01C6A830ED1
:10087A00E66E2D0EE66E000EE66EFE0EE66EE6687B
:10088A000BEC18F0566E050EE15E565011D0010EB3
:10089A001C6E770EE66E2D0EE66E000EE66EFE0EEE
:1008AA00E66EE6680BEC18F0566E050EE15E5650E1
:1008BA00D950030FE96EDACFEAFFEF50040B1AE0C2
:1008CA0038B418D0185002E0000E01D0010E186E8C
:1008DA001850E66EE66A5B0EE66E2D0EE66E000EA8
:1008EA00E66EFE0EE66EE6680BEC18F0566E070E24
:1008FA00E15E5650D950030FE96EDACFEAFFEF50A6
:10090A00200B02E038AA86DCE4D038AC33D0D950C8
:10091A00040FE96EDACFEAFFEF503C0825E1010E39
:10092A00196E156E1A500FE0510EE66E2D0EE66E18
:10093A00000EE66EFE0EE66EE6680BEC18F0566EDA
:10094A00050EE15E5650D9500A0FE96EDACFEAFF7A
:10095A0018C0EFFF186A1A6AD950040FE96EDACF85
:10096A00EAFF410EEF6E06D0D950040FE96EDACFD6
:10097A00EAFFEF2A38A829D0D950050FE96EDACF55
:10098A00EAFFEF503C081BE2196A1A500FE0480EC2
:10099A00E66E2D0EE66E000EE66EFE0EE66EE6685A
:1009AA000BEC18F0566E050EE15E56501A6AD950D5
:1009BA00050FE96EDACFEAFF410EEF6E06D0D95085
:1009CA00050FE96EDACFEAFFEF2A1A5001E081D06B
:1009DA0038A23DD0D950060FE96EDACFEAFFEF50C0
:1009EA002D082FE2010EE66E020EE66E1950030D77
:1009FA00F3CF56F0F4CF57F0390E5626000E572291
:100A0A0056C0E6FF57C0E6FF4BEC0FF0E552E55241
:100A1A00E552E552460EE66E2D0EE66E000EE66EC5
:100A2A00FE0EE66EE6680BEC18F0566E050EE15EF9
:100A3A005650D950060FE96EDACFEAFF230EEF6E51
:100A4A0006D0D950060FE96EDACFEAFFEF2A38A4AA
:100A5A003FD0010E156E166ED950070FE96EDACF28
:100A6A00EAFFEF502D082EE2010EE66EE66E1950EF
:100A7A00030DF3CF56F0F4CF57F0390E5626000E79
:100A8A00572256C0E6FF57C0E6FF4BEC0FF0E5527F
:100A9A00E552E552E552440EE66E2D0EE66E000E64
:100AAA00E66EFE0EE66EE6680BEC18F0566E050E64
:100ABA00E15E5650D950070FE96EDACFEAFF230EEE
:100ACA00EF6E06D0D950070FE96EDACFEAFFEF2AA8
:100ADA0000D09DEC09F0D9CFE9FFDACFEAFFEF2A7F
:100AEA00060EE66E9BEC1AF0E552B4D50D0EE15CEB
:100AFA0002E2E16AE552E16EE552E7CFD9FF120060
:100B0A00D9CFE6FFE1CFD9FF020EE126015007E077
:100B1A00D950010FE96EDACFEAFFEF6A07D0D95050
:100B2A00010FE96EDACFEAFF010EEF6EF80E8216B8
:100B3A00D950010FE96EDACFEAFFEFCF56F0576AC4
:100B4A0056BE5768090E5702F3CF57F05602F3CF35
:100B5A0056F0F4505726020E5626000E5722D95048
:100B6A00FE0FE96EFF0EDA20EA6EEF50030D5650C3
:100B7A00F324E96E5750F420EA6EEF50E66E2D0E1C
:100B8A00F66E360EF76E000EF86E0800F550E66E39
:100B9A00800EE66E6CEC17F0E552E552E552E66E11
:100BAA00D9CFE9FFDACFEAFFE552E750EF6ED95025
:100BBA00010FE96EDACFEAFFEFCF56F0576A56BE59
:100BCA005768090E5702F3CF57F05602F3CF56F083
:100BDA00F4505726020E5626000E5722D950FE0F01
:100BEA00E96EFF0EDA20EA6EEF50030D5650F32439
:100BFA00E96E5750F420EA6E010EE926000EEA2249
:100C0A00EF50E66E2E0EF66E360EF76E000EF86E8A
:100C1A000800F550E66E800EE66E6CEC17F0E552B1
:100C2A00E552E552E66ED9CFE9FFDACFEAFFE5529F
:100C3A00E750EF6ED950010FE96EDACFEAFFEFCF36
:100C4A0056F0576A56BE5768090E5702F3CF57F047
:100C5A005602F3CF56F0F4505726020E5626000ECF
:100C6A005722D950FE0FE96EFF0EDA20EA6EEF50D6
:100C7A00030D5650F324E96E5750F420EA6E020E23
:100C8A00E926000EEA22EF50E66E2F0EF66E360EB9
:100C9A00F76E000EF86E0800F550E66E800EE66EEE
:100CAA006CEC17F0E552E552E552E66ED9CFE9FF52
:100CBA00DACFEAFFE552E750EF6E2A0E566E360E8D
:100CCA00576E000E586ED950FE0FE96EFF0EDA20ED
:100CDA00EA6EEFCF59F05A6A5B6A56505924F36E9E
:100CEA0057505A20F46E58505B20F86EF4CFF7FF35
:100CFA00F3CFF6FF0800F5505C6E010E5C5204E07B
:100D0A00E846FE0B5C06FCE18212D9CFE9FFDACF96
:100D1A00EAFFEF50566E020EE15C03E200D0E16A90
:100D2A00E552E16E5650E552E7CFD9FF1200D9CF0E
:100D3A00E6FFE1CFD9FF040EE126360EE66E2D0E50
:100D4A00E66E000EE66EFE0EE66EE6680BEC18F036
:100D5A00566E050EE15E5650F29E070EE66ED9CF2C
:100D6A00E6FFDACFE6FFE66AD00EE66EFEEC16F094
:100D7A00566E050EE15E5650F28ED950030FE96E9B
:100D8A00DACFEAFFEF6AD950030FE96EDACFEAFF4A
:100D9A00EFCF56F0030E565C01E38CD0D950030F07
:100DAA00E96EDACFEAFFEF50020826E1D9CF56F012
:100DBA00DACF57F0D950030FE96EDACFEAFFEF50D6
:100DCA000F015624E96E000E5720EA6EEF503F0BD2
:100DDA00E66EEEEC0FF0E552E66ED950030FE96EBF
:100DEA00DACFEAFFEF50EA6A390FE96E000EEA221B
:100DFA00E552E750EF6E24D0D9CF56F0DACF57F04C
:100E0A00D950030FE96EDACFEAFFEF500F015624EB
:100E1A00E96E000E5720EA6EEF50E66EEEEC0FF028
:100E2A00E552E66ED950030FE96EDACFEAFFEF50CA
:100E3A00EA6A390FE96E000EEA22E552E750EF6ED0
:100E4A00D950030FE96EDACFEAFFEF50EA6A390F99
:100E5A00E96E000EEA22EF50E66EE66AD950030FF9
:100E6A00E96EDACFEAFFEF50EA6A390FE96E000E4F
:100E7A00EA22EF50E66EE66AD950030FE96EDACF3E
:100E8A00EAFFEF50E66EE66A200EE66E2D0EE66E7B
:100E9A00000EE66EFE0EE66EE6680BEC18F0566E75
:100EAA000B0EE15E5650D950030FE96EDACFEAFF16
:100EBA00EF2A69D7110EE66E2D0EE66E000EE66E6B
:100ECA00FE0EE66EE6680BEC18F0566E050EE15E55
:100EDA005650F29E030EE66ED9CFE6FFDACFE6FF52
:100EEA00080EE66ED00EE66EFEEC16F0566E050E95
:100EFA00E15E5650F28ED950030FE96EDACFEAFF5F
:100F0A00EF6AD950030FE96EDACFEAFFEFCF56F056
:100F1A00030E565C01E38CD0D950030FE96EDACF89
:100F2A00EAFFEF50020826E1D9CF56F0DACF57F0A0
:100F3A00D950030FE96EDACFEAFFEF500F015624BA
:100F4A00E96E000E5720EA6EEF503F0BE66EEEECAC
:100F5A000FF0E552E66ED950030FE96EDACFEAFFD9
:100F6A00EF50EA6A3C0FE96E000EEA22E552E750BA
:100F7A00EF6E24D0D9CF56F0DACF57F0D950030FFD
:100F8A00E96EDACFEAFFEF500F015624E96E000E40
:100F9A005720EA6EEF50E66EEEEC0FF0E552E66E81
:100FAA00D950030FE96EDACFEAFFEF50EA6A3C0F35
:100FBA00E96E000EEA22E552E750EF6ED950030FB0
:100FCA00E96EDACFEAFFEF50EA6A3C0FE96E000EEB
:100FDA00EA22EF50E66EE66AD950030FE96EDACFDD
:100FEA00EAFFEF50EA6A3C0FE96E000EEA22EF5080
:100FFA00E66EE66AD950030FE96EDACFEAFFEF50E0
:10100A00E66EE66A200EE66E2D0EE66E000EE66EBF
:10101A00FE0EE66EE6680BEC18F0566E0B0EE15EFD
:10102A005650D950030FE96EDACFEAFFEF2A69D793
:10103A000B0EE66E2D0EE66E000EE66EFE0EE66EE8
:10104A00E6680BEC18F0566E050EE15E5650000E7F
:10105A00566E040EE15C03E200D0E16AE552E16EED
:10106A005650E552E7CFD9FF1200D9CFE6FFE1CFBC
:10107A00D9FF020EE126FE0EE66E2C0EE66E000E7B
:10108A00E66EFE0EE66EE6680BEC18F0566E050E7E
:10109A00E15E5650F29E900EE66E070EE66ED00E98
:1010AA00E66E6CEC17F0E552E552E552E66ED9CFE2
:1010BA00E9FFDACFEAFFE552E750EE6EED6A3B5000
:1010CA00E66EDBD8E5523F0BE66E020EE66ED00EF8
:1010DA00E66E6CEC17F0E552E552E552E66ED9CFB2
:1010EA00E9FFDACFEAFFE552E750EE6EED6A3A50D1
:1010FA00E66EC3D8E552E66E010EE66ED00EE66ED7
:10110A006CEC17F0E552E552E552E66ED9CFE9FFED
:10111A00DACFEAFFE552E750EE6EED6AE66AE66A72
:10112A00D00EE66E6CEC17F0E552E552E552E66E2B
:10113A00D9CFE9FFDACFEAFFE552E750EE6EED6A62
:10114A00F28E0B0EE66E2D0EE66E000EE66EFE0EAB
:10115A00E66EE6680BEC18F0566E050EE15E565028
:10116A00000E566E020EE15C03E200D0E16AE5521F
:10117A00E16E5650E552E7CFD9FF1200D9CFE6FF0C
:10118A00E1CFD9FF020EE126EB0EE66E2C0EE66EDB
:10119A00000EE66EFE0EE66EE6680BEC18F0566E72
:1011AA00050EE15E5650F29EE66A080EE66ED00E15
:1011BA00E66E6CEC17F0E552E552E552E66ED9CFD1
:1011CA00E9FFDACFEAFFE552E750EE6EED6A3D50ED
:1011DA00E66E53D8E552E66E090EE66ED00EE66E5E
:1011EA006CEC17F0E552E552E552E66ED9CFE9FF0D
:1011FA00DACFEAFFE552E750EE6EED6A3E50E66E50
:10120A003CD8E5523F0BE66E0A0EE66ED00EE66E4D
:10121A006CEC17F0E552E552E552E66ED9CFE9FFDC
:10122A00DACFEAFFE552E750EE6EED6AF28E000E73
:10123A00E66EE66A3D50E66EE66A3E50E66EE66A9D
:10124A00D90EE66E2C0EE66E000EE66EFE0EE66E09
:10125A00E6680BEC18F0566E0B0EE15E5650000E67
:10126A00566E020EE15C03E200D0E16AE552E16EDD
:10127A005650E552E7CFD9FF1200D9CFE6FFE1CFAA
:10128A00D9FF020EE126D950FE0FE96EFF0EDA20D1
:10129A00EA6EEFCF56F00A0E576E57C04EF056C0A0
:1012AA0049F007EC1BF04950E66ED9CFE9FFDACFD7
:1012BA00EAFFE552E750EE6EED6AD9CFE9FFDACFE1
:1012CA00EAFF040ED890EE36ED36E806FBE10A0E88
:1012DA00566ED950FE0FE96EFF0EDA20EA6EEFCF96
:1012EA0049F056C04EF007EC1BF045C0EFFFD9504D
:1012FA00FE0FE96EFF0EDA20EA6EEF50586E596A59
:10130A00D9CFE9FFDACFEAFF5850EE10566E59509E
:10131A00EE10576E5650566E020EE15C03E200D094
:10132A00E16AE552E16E5650E552E7CFD9FF120065
:10133A00D9CFE6FFE1CFD9FF0B0EE126D9CFE9FFDE
:10134A00DACFEAFFEF6AD950010FE96EDACFEAFF86
:10135A00EF6AD950020FE96EDACFEAFFEF6AD95085
:10136A00030FE96EDACFEAFFEF6AD950040FE96E8C
:10137A00DACFEAFFEF6AD950050FE96EDACFEAFF52
:10138A00100EEE6EE00EEE6EA00EEE6ED950080F45
:10139A00E96EDACFEAFFEE6AEE6AEE6A005001E021
:1013AA0057D3D9CFE9FFDACFEAFFEFCF56F0030ED2
:1013BA00565C01E336D3D9CFE9FFDACFEAFFEF5023
:1013CA00140DF350E66ED950040FE96EDACFEAFF36
:1013DA00E552E750EF6ED950040FE96EDACFEAFF13
:1013EA00EF50140FE66ED950030FE96EDACFEAFF19
:1013FA00E552E750EF6ED950080FE96EDACFEAFFEF
:10140A00EE6AEE6AEE6A0150090DF3CF56F0F4CF98
:10141A0057F0020E5626000E5722D9CFE9FFDACF2F
:10142A00EAFFEF50030D5650F324E96E5750F420AB
:10143A00EA6EEF6A0150090DF3CF56F0F4CF57F078
:10144A00020E5626000E5722D9CFE9FFDACFEAFF5D
:10145A00EF50030D5650F324E96E5750F420EA6E0C
:10146A00010EE926000EEA22EF6A0150090DF3CFB8
:10147A0056F0F4CF57F0020E5626000E5722D9CF57
:10148A00E9FFDACFEAFFEF50030D5650F324E96E75
:10149A005750F420EA6E020EE926000EEA22EF6A9D
:1014AA00185001E18AD0175001E187D01950030D75
:1014BA00F3CFE9FFF4CFEAFF390EE926000EEA225C
:1014CA00EECF56F0EECF57F0EFCF58F0D950040FC9
:1014DA00E96EDACFEAFFEF50565C6FE31950030D5D
:1014EA00F3CFE9FFF4CFEAFF390EE926000EEA222C
:1014FA00EECF59F0EECF5AF0EFCF5BF0D950030F91
:10150A00E96EDACFEAFFEF50595C57E2D950050F7E
:10151A00E96EDACFEAFF010EEE6EEE6AEE6A195054
:10152A00030DF3CFE9FFF4CFEAFF390EE926000EE7
:10153A00EA22EECF56F0EECF57F0EFCF58F0D9505F
:10154A00040FE96EDACFEAFFEF50565CE66ED95027
:10155A00010FE96EDACFEAFFE552E750EF6ED95094
:10156A00010FE96EDACFEAFFEFCF56F0D950050F37
:10157A00E96EDACFEAFF56501F0B09E0E76ED89002
:10158A00EF36010EEB36020EEB36E706F8E1D950DC
:10159A00050FE96EDACFEAFFEECF56F0EECF57F03D
:1015AA00EFCF58F0D950080FE96EDACFEAFF56505C
:1015BA00EE125750EE125850EE121550161001E165
:1015CA0087D01950030DF3CFE9FFF4CFEAFF390EA4
:1015DA00E926000EEA22EECF56F0EECF57F0EFCF13
:1015EA0058F0D950040FE96EDACFEAFFEF50575C92
:1015FA006FE31950030DF3CFE9FFF4CFEAFF390E79
:10160A00E926000EEA22EECF59F0EECF5AF0EFCFDC
:10161A005BF0D950030FE96EDACFEAFFEF505A5C5C
:10162A0057E2D950050FE96EDACFEAFF010EEE6EE6
:10163A00EE6AEE6A1950030DF3CFE9FFF4CFEAFF21
:10164A00390EE926000EEA22EECF56F0EECF57F019
:10165A00EFCF58F0D950040FE96EDACFEAFFEF5016
:10166A00575CE66ED950010FE96EDACFEAFFE55210
:10167A00E750EF6ED950010FE96EDACFEAFFEFCFEC
:10168A0056F0D950050FE96EDACFEAFF56501F0B14
:10169A0009E0E76ED890EF36010EEB36020EEB3614
:1016AA00E706F8E1D950050FE96EDACFEAFFEECF87
:1016BA0056F0EECF57F0EFCF58F0D950080FE96E39
:1016CA00DACFEAFF5650EE125750EE125850EE1289
:1016DA001950030DF3CFE9FFF4CFEAFF390EE926DB
:1016EA00000EEA22EECF56F0EECF57F0EFCF58F0C9
:1016FA000C0E585C34E21950030DF3CFE9FFF4CF16
:10170A00EAFF390EE926000EEA22020EE926000E49
:10171A00EA22EF50050DF3CF59F0D950040FE96EC4
:10172A00DACFEAFFEF50595C1AE31950030DF3CFF1
:10173A00E9FFF4CFEAFF390EE926000EEA22020E8B
:10174A00E926000EEA22EF50050DF3CF5AF0D950E0
:10175A00030FE96EDACFEAFFEF505A5C4CE31950F7
:10176A00030DF3CFE9FFF4CFEAFF390EE926000EA5
:10177A00EA22EECF5BF0EECF5CF0EFCF5DF00C0E1D
:10178A005D5C01E2CED01950030DF3CFE9FFF4CF2F
:10179A00EAFF390EE926000EEA22020EE926000EB9
:1017AA00EA22EF50F40F050DF3CF5EF0D950040F83
:1017BA00E96EDACFEAFFEF505E5C01E2B2D019506F
:1017CA00030DF3CFE9FFF4CFEAFF390EE926000E45
:1017DA00EA22020EE926000EEA22EF50F40F050D66
:1017EA00F3CF5FF0D950030FE96EDACFEAFFEF507B
:1017FA005F5C01E396D0D950050FE96EDACFEAFFB4
:10180A00010EEE6EEE6AEE6A1950030DF3CFE9FF90
:10181A00F4CFEAFF390EE926000EEA22020EE92683
:10182A00000EEA22EF50050DF3CF56F0D950040FFF
:10183A00E96EDACFEAFFEF50565CE66ED950010F37
:10184A00E96EDACFEAFFE552E750EF6E1950030D61
:10185A00F3CFE9FFF4CFEAFF390EE926000EEA22B8
:10186A00EECF56F0EECF57F0EFCF58F00C0E585C93
:10187A0009E33C0E566ED950010FE96EDACFEAFF42
:10188A005650EF5E1950030DF3CFE9FFF4CFEAFF8C
:10189A00390EE926000EEA22EECF57F0EECF58F0C5
:1018AA00EFCF59F00C0E5A6E5AC04EF058C049F09C
:1018BA0007EC1BF049C056F0D950010FE96EDACF98
:1018CA00EAFF5650EF26D950010FE96EDACFEAFF48
:1018DA00EFCF56F0D950050FE96EDACFEAFF56502E
:1018EA001F0B09E0E76ED890EF36010EEB36020EB9
:1018FA00EB36E706F8E1D950050FE96EDACFEAFFD1
:10190A00EECF56F0EECF57F0EFCF58F0D950080F80
:10191A00E96EDACFEAFF5650EE125750EE125850DF
:10192A00EE12D950080FE96EDACFEAFFEF50E66EF1
:10193A000150090DF3CF56F0F4CF57F0020E562698
:10194A00000E5722D9CFE9FFDACFEAFFEF50030D95
:10195A005650F324E96E5750F420EA6EE552E750E8
:10196A00EF6ED950080FE96EDACFEAFFEECF58F0E2
:10197A00EFCF59F059C058F0596A0150090DF3CF09
:10198A0056F0F4CF57F0020E5626000E5722D9CF42
:10199A00E9FFDACFEAFFEF50030D5650F324E96E60
:1019AA005750F420EA6E010EE926000EEA2258C0CA
:1019BA00EFFF100E5B6ED950080FE96EDACFEAFF1F
:1019CA005B501F0BEECF58F0EECF59F0EECF5AF026
:1019DA0006E0D8905A3259325832E806FAE10150F4
:1019EA00090DF3CF56F0F4CF57F0020E5626000E2B
:1019FA005722D9CFE9FFDACFEAFFEF50030D56504D
:101A0A00F324E96E5750F420EA6E020EE926000E1E
:101A1A00EA2258C0EFFFD9CFE9FFDACFEAFFEF2A6F
:101A2A00C0D41950030DF3CFE9FFF4CFEAFF390E02
:101A3A00E926000EEA22020EE926000EEA22EF50FB
:101A4A000B0803E2010E1F6E01D01F6A010E006E21
:101A5A000B0EE15C02E2E16AE552E16EE552E7CF84
:101A6A00D9FF1200070EB46E806A816A826A010E7B
:101A7A00926E770E936E180E946E0F0EC16E82865A
:101A8A00948694880A0EE66EE66A7C0EE66E9BECF5
:101A9A0018F0E552E552E552C00EE66E080EE66E03
:101AAA0068EC1AF0E552E552310EC86ED60EE66EB3
:101ABA004CEC1AF0E5520E0EE66E040EE66EEF0ED0
:101ACA00E66E10EC19F0E552E552E552F29E0A0E66
:101ADA00E66E9BEC1AF0E552AC0EE66E2C0EE66E44
:101AEA00000EE66EAAEC19F0E552E552E552120034
:101AFA00D9CFE6FFE1CFD9FFE652960EE66E2C0E5D
:101B0A00E66E000EE66EAAEC19F0E552E552E552D1
:101B1A00300EE66E360EE66E000EE66E800EE66E4D
:101B2A00BFD8E552E552E552E552E66ED9CFE9FF54
:101B3A00DACFEAFFE552E750EF6ED9CFE9FFDACF05
:101B4A00EAFFEF50E66EE66A8C0EE66E2C0EE66E43
:101B5A00000EE66EFE0EE66EE6680BEC18F0566EA8
:101B6A00070EE15E5650330EE66E360EE66E000E36
:101B7A00E66E800EE66E94D8E552E552E552E552DD
:101B8A00E66ED9CFE9FFDACFEAFFE552E750EF6E0A
:101B9A00D9CFE9FFDACFEAFFEF50E66EE66A8C0E9C
:101BAA00E66E2C0EE66E000EE66EFE0EE66EE66839
:101BBA000BEC18F0566E070EE15E5650360EE66EC6
:101BCA00360EE66E000EE66E800EE66E69D8E552B7
:101BDA00E552E552E552E66ED9CFE9FFDACFEAFFE0
:101BEA00E552E750EF6ED9CFE9FFDACFEAFFEF50BF
:101BFA00E66EE66A8C0EE66E2C0EE66E000EE66E59
:101C0A00FE0EE66EE6680BEC18F0566E070EE15E05
:101C1A0056503F0EE66E360EE66E000EE66E800EEB
:101C2A00E66E3ED8E552E552E552E552E66ED9CF68
:101C3A00E9FFDACFEAFFE552E750EF6EE00E8212D3
:101C4A00E66A9BEC1AF0E552420EE66E360EE66E36
:101C5A00000EE66E800EE66E23D8E552E552E55296
:101C6A00E552E66ED9CFE9FFDACFEAFFE552E7504F
:101C7A00EF6E1F0E82160A0EE66E9BEC1AF0E55204
:101C8A00780EE66E2C0EE66E000EE66EAAEC19F0E1
:101C9A00E552E552E552E552E552E7CFD9FF120087
:101CAA00D9CFE6FFE1CFD9FFE652D950FB0FE96E53
:101CBA00FF0EDA20EA6EEFCFF6FFEE2AEFCFF7FF3C
:101CCA00000EEE22EFCFF8FFEE220800F550E66E86
:101CDA00D9CFE9FFDACFEAFFE552E750EF6EC750F6
:101CEA00040B01E0010E566E1F0EC514561001E0DA
:101CFA00F6D7C580C5B0FED7D950FE0FE96EFF0EE4
:101D0A00DA20EA6EEF50E66E83EC1AF0E55200092B
:101D1A0002E0FD0E56D0C750040B01E0010E566ECC
:101D2A001F0EC514561001E0F6D7D950FB0FE96E05
:101D3A00FF0EDA20EA6EEECFF6FFEECFF7FFEFCF17
:101D4A00F8FF0800F550E66E83EC1AF0E552000938
:101D5A0002E0FD0E36D0C5AC02D0FC0E32D0A1A6F0
:101D6A0002D0FF0E2ED0D950FB0FE96EFF0EDA20FB
:101D7A00EA6EEE2A000EEE22EE22D9CFE9FFDACF82
:101D8A00EAFFEF06D9CFE9FFDACFEAFFEFCF56F045
:101D9A00E76E5618E8AE02D0563403D0E750D88022
:101DAA005654B9E3C750040B01E0010E566E1F0EDC
:101DBA00C514561001E0F6D7C584C5B4FED7000E87
:101DCA0000D0E552E552E7CFD9FF1200811CE66E3A
:101DDA003750EA6A2B0FE96E000EEA22E552E75005
:101DEA00EF6E372A0C0E375C01E3376A1200D9CF3F
:101DFA00E6FFE1CFD9FF020EE126D950010FE96EC5
:101E0A00DACFEAFFEF68D9CFE9FFDACFEAFFEF6A64
:101E1A00D9CFE9FFDACFEAFFEFCF56F00C0E565CC6
:101E2A0019E2D9CFE9FFDACFEAFFEF50EA6A2B0FBE
:101E3A00E96E000EEA22EFCF56F0D950010FE96E93
:101E4A00DACFEAFF5650EF16D9CFE9FFDACFEAFF29
:101E5A00EF2ADED7760E566ED950010FE96EDACF29
:101E6A00EAFF5650EF16D950010FE96EDACFEAFFB2
:101E7A00EF50566E020EE15C03E200D0E16AE552D1
:101E8A00E16E5650E552E7CFD9FF1200D9CFE6FFEF
:101E9A00E1CFD9FFE652D950FD0FE96EFF0EDA20E5
:101EAA00EA6EEE50EFCFEAFFE96EE9CF56F0EACFDD
:101EBA0057F0D950FC0FE96EFF0EDA20EA6EEF50A8
:101ECA000F015624E96E000E5720EA6EEF50E66EB7
:101EDA00D9CFE9FFDACFEAFFE552E750EF6ED950E2
:101EEA00FB0FE96EFF0EDA20EA6EEFCF56F0D9CF7C
:101EFA00E9FFDACFEAFF5650EF26D950FC0FE96E18
:101F0A00FF0EDA20EA6EEF50020810E1D9CFE9FF9E
:101F1A00DACFEAFFEF50170808E2180E566ED9CF4B
:101F2A00E9FFDACFEAFF5650EF5E2AD0D9CFE9FFB0
:101F3A00DACFEAFFEF503B0823E23C0E566ED9CFC8
:101F4A00E9FFDACFEAFF5650EF5E1A5019E0010EA8
:101F5A00E66ED950FC0FE96EFF0EDA20EA6EEF2822
:101F6A00E66ED950FD0FE96EFF0EDA20EA6EEECF6B
:101F7A00E6FFEFCFE6FF8ADFE552E552E552E5528A
:101F8A00D9CFE9FFDACFEAFFEF50E66ED950FD0F5D
:101F9A00E96EFF0EDA20EA6EEE50EFCFEAFFE96E45
:101FAA00E9CF56F0EACF57F0D950FC0FE96EFF0E91
:101FBA00DA20EA6EEF500F015624E96E000E572020
:101FCA00EA6EE552E750EF6EE552E552E7CFD9FFE8
:101FDA001200D9CFE6FFE1CFD9FFE652D950FE0F62
:101FEA00E96EFF0EDA20EA6EEF500F0BE66ED9CFDC
:101FFA00E9FFDACFEAFFE552E750EF6ED950FE0F5C
:10200A00E96EFF0EDA20EA6EEF380F0B0A0DF35075
:10201A00E66ED950FE0FE96EFF0EDA20EA6EE5523F
:10202A00E750EF6ED9CFE9FFDACFEAFFEFCF56F0EC
:10203A00D950FE0FE96EFF0EDA20EA6EEF505624F1
:10204A0000D0E552E552E7CFD9FF120067EC15F050
:10205A00FB0EDBCFF3FFDB06F35000090AE0B5EC19
:10206A0015F0FA0E20EC16F0F3E1571CF1E1010E1F
:10207A0001D0000E96EF15F067EC15F03B0EE12447
:10208A0002E3E168E652E16E010EDB6A020EDB6AE8
:10209A00F90EDBCFF6FFFA0EDBCFF7FFFB0EDBCF35
:1020AA00F8FF0800F550DF6EDF5002E1BAEF14F0D6
:1020BA00250EDF5C02E0ADEF14F0030EDB6A040EBE
:1020CA00DB6A050EDB6A060EDB6A070EDB6ACFECFB
:1020DA0014F02D0EDF5C0CE02B0EDF5C09E0200E05
:1020EA00DF5C06E0230EDF5C03E0300EDF5C1AE102
:1020FA00DF50300A14E0130A0FE0030A0AE00B0A61
:10210A0005E0060AE4E1030EDB80E1D7030EDB8279
:10211A00DED7030EDB84DBD7030EDB86D8D7030EAC
:10212A00DB88D5D72A0EDF5C1BE1CBEC14F019EC67
:10213A0015F010E0030EDB8048684968130EDBCF08
:10214A004DF0140EDBCF4EF0DCEC19F0040E46C055
:10215A00DBFF03D0130E02EC15F0CFEC14F00BD01A
:10216A00090EDB6A70EC15F003E0E4EC15F0FAD71F
:10217A00090E02EC15F0030EDBB0DB982E0EDF5CC5
:10218A001BE1CFEC14F02A0EDF5C0BE1CBEC14F070
:10219A0019EC15F003E1130E54EC15F0CFEC14F022
:1021AA000BD0090EDB6A70EC15F003E0E4EC15F0D5
:1021BA00FAD7090E54EC15F0680EDF5C07E1CFEC94
:1021CA0014F0680EDF5C1DE1030E18D0740EDF5C9C
:1021DA0017E07A0EDF5C14E0480EDF5C06E0540E6E
:1021EA00DF5C03E05A0EDF5C02E1020E07D06C0EE0
:1021FA00DF5C03E06A0EDF5C04E1010EA7EC15F078
:10220A00C9DBDF506E0A01E17FD31E0A01E192D1D8
:10221A00200A01E18FD13F0A01E149D11A0A01E1FD
:10222A0046D10D0A01E143D1200A01E140D13A0A1F
:10223A0001E13DD1200A01E13AD1260A01E135D175
:10224A000D0A01E132D11A0A01E1D9D0200A4AE085
:10225A00300A1FE0460A0EE0250A01E083D3D9506E
:10226A00F90FE96EFF0EDA20EA6E010EEE5E000E3D
:10227A00EE5AEE5AB5EC15F0250EE66E95DB03E143
:10228A00571C01E169D3B1EC15F001E26BD3DB2AEB
:10229A0069D3080EDB6A040EDB50010806E2040E5D
:1022AA00DB0479EC15F0DB508BDB080EDB5009E020
:1022BA00030EDB50010B05E172DB01E04DD3080E82
:1022CA00DB6A64DBEFCFDFFF29EC16F003E1571C72
:1022DA0001E142D3B1EC15F001E3DB2A60DB01E155
:1022EA0041D33AD3070EDB5002080FE1F5EC15F0A3
:1022FA00030EBCEC15F00E0EEECFDBFF0F0EEECF89
:10230A00DBFF100EEECFDBFF20D0F70EDBCF59F04C
:10231A00F80EDBCF5AF0020E595E000E5A5AF70E2B
:10232A0059C0DBFFF80E5AC0DBFF59C0E9FF5AC09B
:10233A00EAFFACEC15F0586A0E0E56C0DBFF0F0E22
:10234A0057C0DBFF100E58C0DBFF0E0EDBCFE6FFD7
:10235A000F0EDBCFE6FF100EDBCFE6FF52EC19F0D3
:10236A00E552E552E552130E47C0DBFF140E48C092
:10237A00DBFF060EDB5005E0130EF0EC15F001E270
:10238A006ADB14EC16F002E2130E37DBD7EC15F019
:10239A0006E0040EF0EC15F002E2050E2EDB030E49
:1023AA00DBB005D0FCDA01E0D7D2080EDB6A090EF1
:1023BA00DB6A0E0EDBCFF6FF0F0EDBCFF7FF100E38
:1023CA00DBCFF8FF0800F550DF6EDF5014E01AEC9F
:1023DA0016F011E229EC16F003E1571C01E1BCD218
:1023EA00BBDB01E3DB2A090EDB2AD9500E0FE96EAB
:1023FA00000ECBDBE7D7D3DA01E1B4D2ADD2C6DA2D
:10240A00110EEECFDBFF120EEDCFDBFF110EDBCF8D
:10241A00E6FF120EDBCFE6FF44EC19F0E552E55277
:10242A00130EF3CFDBFF140EF4CFDBFF060EDB50E7
:10243A0004E0130ED0DB01E20EDB14EC16F002E22C
:10244A00130EDBDAAFDB05E0040EC5DB02E2050E94
:10245A00D4DA030EDBB005D0A2DA01E07DD2080E91
:10246A00DB6A090EDB6A110EDBCFE9FF120EDBCF46
:10247A00EAFFEFCFDFFFDF5014E0D7DB12E2E4DB45
:10248A0003E1571C01E168D267DB01E3DB2A090E8D
:10249A00DB2A110EDB2ADBCFE9FF120EE8E3DB2A87
:1024AA00E6D77DDA01E15ED257D2030EDB8E070E44
:1024BA00DB0410E195DB040E5ADB0A0EEECFDBFFDC
:1024CA000B0EEECFDBFF0C0EEECFDBFF0D0EEECFC9
:1024DA00DBFF6CD0070EDB5003082CE1030EDBAEEA
:1024EA000DD0B2DA020E76DAEFCF56F0576A586A92
:1024FA00596A56AE39D05768586835D0F70EDBCFCF
:10250A0057F0F80EDBCF58F0020E575E000E585AFD
:10251A00F70E57C0DBFFF80E58C0DBFF57C0E9FFC4
:10252A0058C0EAFFEFCF56F00A0E56C0DBFF0B0E7B
:10253A00DB6A38D0070EDB50020809E1030EDBAE76
:10254A0004D059DB58AE10D00ED055DB0DD0030E97
:10255A00DBAE12D079DA020E3DDAF9DA586A596A34
:10256A0057AE02D058685968E2DA0C0E58C0DBFF41
:10257A000D0E59C0DBFF1AD0F70EDBCF58F0F80E5C
:10258A00DBCF59F0020E585E000E595AF70E58C0AA
:10259A00DBFFF80E59C0DBFF58C0E9FF59C0EAFF5C
:1025AA00D6DAC5DA0C0EDB6A0D0EDB6A060EDB50D4
:1025BA0005E1010EF36E050EF3CFDBFF150EDB6AA4
:1025CA00160EDB6AD950370F566E000EDA20576E98
:1025DA00390E56C0DBFF3A0E57C0DBFF380EDB6AF6
:1025EA00080EDB6A0A0EAEDADF50780A12E0200A19
:1025FA0010E0280A0CE0200A0AE03F0A06E00D0A69
:10260A0002E0200A08E1020E05D0080E03D0080EE7
:10261A00DF26100E97DA030EDBBE02D0DB92DB94C4
:10262A00DB50800B24E08ADAD890030EEB50000AC4
:10263A0008E6000EEE5C000EEE58000EEE58000E94
:10264A00EE5815E213DA4B684C684D684E68D8ECC0
:10265A0018F00A0E42C0DBFF0B0E43C0DBFF0C0E64
:10266A0044C0DBFF0D0E45C0DBFF2D0E08D0030E64
:10267A00DBA202D02B0E03D0DBA408D0200EF36E0F
:10268A00170EF3CFDBFF150EDB2A02D0170EDB6A1B
:10269A00050EDB5003E1B7D901E189D0450E566E2C
:1026AA00360E576E000E586E070EDBCF59F05A6A77
:1026BA005B6A5C6A59C04BF05AC04CF05BC04DF083
:1026CA005CC04EF0D3D909EC1AF056504224F36E8E
:1026DA0057504320F46E58504420F86EF4CFF7FF59
:1026EA00F3CFF6FF0800090EF5CFDBFF580EDF5CCB
:1026FA000FE1610EF36E090E7BD90AE3200E566EC6
:10270A00090EDBCFE7FF5650E75E090EE7CFDBFF86
:10271A00070EDBCF56F0576A586A596A0FDA56C065
:10272A004BF057C04CF058C04DF059C04EF0EECFA8
:10273A0046F0EECF47F0EECF48F0EFCF49F009EC84
:10274A001AF049C0EDFF48C0EDFF47C0EDFF46C093
:10275A00EFFF390EDBCFE9FFDB063A0EDBCFEAFFEC
:10276A0001E2DB06090EDBCFEFFF150EDB2A4BD9A0
:10277A0095E1030EDBA61DD06F0EDF5C06E1C1D921
:10278A0018E3150EDB285BDA14D0780EDF5C09E05B
:10279A00580EDF5C06E0620EDF5C03E0420EDF5C8F
:1027AA0008E1020EF36E160EF3CFDBFF02D0150E10
:1027BA00DB6A030EDB50100B0EE0040EDBCF56F083
:1027CA00050EDB50D880565406E2060EDB5003E1B4
:1027DA00040EDB5034DA95D90AE2050EDBCFE7FFA7
:1027EA00150EDB50E75E050EE7CFDBFF02D0050EC4
:1027FA00DB6A040EDBCF56F0160E45D9D880565444
:10280A0014E2160EDBCFE6FF150EDBCFE6FF040E51
:10281A00DBCFE6FF050EDB50E552E75CE552D880D8
:10282A00E754E552D880E7545FD9030EDB50010B19
:10283A000BE1080EDB5008E0B2D801E08DD0080E9B
:10284A00DB50BED8080EDB6A170EDB5007E088D9CA
:10285A00170EF1D903E1571C01E17ED0160EDB50A9
:10286A0016E07ED9300EE66E9FD802E1571C74E05E
:10287A0077D9DFCFE6FF59EC18F0E552E552E55279
:10288A00F4CF57F00001F31C02E1571C65E0050E76
:10289A00DBCF56F0160EDB50D880565409E2050EEF
:1028AA00DBCFE7FF160EDB50E75E050EE7CFDBFF57
:1028BA00300EE66E050ECBD94FE1390EDB2ADBCF9F
:1028CA00E9FF3A0E01E3DB2ADBCFEAFF090EEFCF7D
:1028DA00DBFFDB500EE044D9090EADD902E1571CEB
:1028EA003BE0390EDB2ADBCFE9FF3A0EEDE3DB2AC8
:1028FA00EBD755D831E1160EDBCFE6FF080EC3D869
:10290A00E552E7245DD82ED0070EDB50030A1CE0FF
:10291A00010A14E0030A07E07BD9DBCFEEFF020EBF
:10292A00DBCFEDFF1FD0F5D85B6A59AE02D05A68EB
:10293A005B682CD8BCD85BC0EEFF14D0EAD859BE6D
:10294A005A6824D8B4D80ED063D9DBCFEFFF0AD0A7
:10295A007BD905E1571C03E1F368F46810D0FCD871
:10296A0001E3DB2A79D956EF10F0010EDBCF56F0DE
:10297A00020EDBCF57F056C0F3FF57C0F4FF3B0EF1
:10298A00E15C02E2E16AE552E16ECBD029D9020E9E
:10299A00BCEF15F061D90800F550DF6E1200200E69
:1029AA00E66E080E2CEF16F059EC18F0E552E552D7
:1029BA00E552F3CF56F0F4CF57F00001F31C1200A2
:1029CA00566E576AD950010F4DD95650EE265750B8
:1029DA00ED2212005A5E000E5B5AF70E5AC0DBFF58
:1029EA00F80E5BC0DBFF5AC0E9FF5BC0EAFF1200CA
:1029FA00DBCFF4FFF350F45C1200DB50E76E040EF9
:102A0A00E7CFDBFF12000A0EDBCF56F00B0EDBCF4F
:102A1A0057F00C0EDBCF58F00D0EDBCF59F05650A5
:102A2A005710581059101200130EEECFDBFF140E78
:102A3A00EDCFDBFF130EDBCF56F0140EDBCF57F0D2
:102A4A000001800E57141200F70EDBCF5AF0F80E71
:102A5A00DBCF5BF01200050EDB50E66ED950130F88
:102A6A0001D9E552E750EE6EED6A12000A0EDBCF8D
:102A7A0046F00B0EDBCF47F00C0EDBCF48F00D0E05
:102A8A00DBCF49F01200DBCFE6FF150EDBCFE6FF06
:102A9A00050EDB50E552E724E552E7241200DB502D
:102AAA00CED8010EF36E060EF3CFDBFF1200EE5006
:102ABA00EFCFEAFFE96E58C0EEFF59C0EEFF5AC0E9
:102ACA00EEFF1200D9CFE6FFDACFE6FFE1CFD9FF5A
:102ADA00E2CFDAFF1200DFCFE6FFE66AC9EC1AF0AE
:102AEA00E552E552F3501200E76E080EE7CFDBFF1E
:102AFA001200EECF56F0EECF57F0EFCF58F0596AEA
:102B0A001200050EDBCF56F0150EDB50D880565456
:102B1A001200010EDBCF58F0020EDBCF59F05A6AD1
:102B2A001200E552E5CFDAFFE7CFD9FF12000A0E0D
:102B3A0056C0DBFF0B0E57C0DBFF1200D9500A0F3D
:102B4A0037EF16F0F36E070EF3CFDBFF1200EECF6E
:102B5A0056F0EFCF57F01200010EDB2A020E1200D8
:102B6A00FC0EDBCFE6FFFD0EDBCFE6FF1200565E62
:102B7A00000E575AF70E56C0DBFFF80E57C0DBFFA0
:102B8A0056C0E9FF57C0EAFF1200DA20EA6EEF2AC0
:102B9A00EECFF6FF000EEF22EECFF7FFEF22EECFD9
:102BAA00F8FF1200040EDBCFE6FF130EDB50E552EE
:102BBA00E75C9ADFDB5004DF060EDB501200090ED9
:102BCA00DB500A0DF350DF24D00FE76E090EE7CF72
:102BDA00DBFFCFEF14F0DB50F36E050EFDEF14F0C0
:102BEA00F70EDBCF56F0F80EDBCF57F01200DFCF2F
:102BFA00E6FFD9EF14F028DF030EECDE7EEF15F0C6
:102C0A002BEC10F0E552E552E552E55200091200AC
:102C1A00BDDEEE50EFCFEAFFE96E010E1200130E91
:102C2A00DB50F36E040EFDEF14F0040EDB50F36E6E
:102C3A00090EFDEF14F0DBCFE6FFD9EF14F0E76ED3
:102C4A00050EE7CFDBFF12008BDFFCEF15F0DBCFC1
:102C5A00E6FF86DF05EF16F0D950F90FE96EFF0E91
:102C6A00CAEF15F0E96E000EDA20EA6E12000D0ABC
:102C7A004750494F20496E6974203A20456E640DC9
:102C8A000A0072746E092523750D0A000D0A475051
:102C9A00494F09496E6974203A2053746172740D60
:102CAA000A000D0A0D0A0D0A0D0A2F2F2F2F2F2F9A
:102CBA002F2F2F2F2F2F2F2F2F2F0D0A426F6F7489
:102CCA00757020636F6D706C657465640D0A0025FC
:102CDA002E32753A252E32753A252E3275290D0A6D
:102CEA00000D0A616C61726D5F73746F726554696D
:102CFA006D6528000D0A73657452544328290D0A1C
:102D0A0000456E640D0A000D0A5265616420616C0B
:102D1A0061726D0D0A00252375203A20252E38622E
:102D2A00203A2025232E3275200D0A000D0A5265FD
:102D3A0061642074696D650D0A006D006800536551
:102D4A00742074696D6500416C61726D20736574DD
:102D5A00000D0A546F67676C65207365636F6E6454
:102D6A007320646973706C6179202575000D0A41BE
:102D7A006C61726D206F6E21000D0A416C61726D7B
:102D8A00206F6666210072000D0A416C61726D2126
:102D9A000D0A00290D0A006E61646100252E327544
:102DAA003A252E32753A252E3275000D0A616C616C
:102DBA00726D5F736574536E6F6F7A652800536E18
:102DCA006F6F7A6520252E32753A252E32753A258F
:102DDA002E3275290D0A000D0A616C61726D5F75DC
:102DEA0070646174654F6666280028252369292066
:102DFA0000FFD9CFE6FFDACFE6FFE1CFD9FFE2CF76
:102E0A00DAFFC750040B01E0010E55D8FAE1C5807C
:102E1A00C5B0FED7A1B644D0FD0E52D81EE1C750A8
:102E2A00040B01E0010E47D8FAE1C5BC3BD0FC0E09
:102E3A0047D813E1C750040B01E0010E3CD8FAE170
:102E4A00C5BC30D0C582C5B2FED7FD0EDB28E66E02
:102E5A0083EC1AF0E552000902E0FD0E26D0C750B5
:102E6A00040B01E0010E27D8FAE1C5BC1BD0F90E0C
:102E7A00DBCFE6FFFA0EDBCFE6FFFB0EDBCFE6FF8A
:102E8A0077EC19F0E552E552E552000909E1C58AE5
:102E9A00C588C5B8FED7C584C5B4FED7A1A604D0D7
:102EAA00FF0E03D0FE0E01D0000EE552E5CFDAFF89
:102EBA00E7CFD9FF1200566E1F0EC5145610120026
:102ECA00DBCFE6FF83EC1AF0E55200091200D9CFF6
:102EDA00E6FFDACFE6FFE1CFD9FFE2CFDAFFC7504C
:102EEA00040B01E0010E3ED8FAE1C580C5B0FED759
:102EFA00A1B628D0FD0E2FD816E1C750040B01E069
:102F0A00010E30D8FAE1C5BC10D0FC0E24D80BE172
:102F1A00C750040B01E0010E25D8FAE1C5BC05D063
:102F2A00FB0E19D804E0FD0E10D0FE0E0ED0C750CD
:102F3A00040B01E0010E16D8FAE1C584C5B4FED728
:102F4A00A1A602D0FF0E01D0000EE552E5CFDAFFAE
:102F5A00E7CFD9FF1200DBCFE6FF83EC1AF0E55288
:102F6A0000091200566E1F0EC514561012002A0EC2
:102F7A00F66E000EF76E000EF86E00010900F550AD
:102F8A00856F0900F550866F03E1856701D03DD052
:102F9A000900F550806F0900F550816F0900F5505E
:102FAA00826F09000900F550E96E0900F550EA6ED2
:102FBA00090009000900F550836F0900F550846F74
:102FCA0009000900F6CF87F0F7CF88F0F8CF89F02B
:102FDA0080C0F6FF81C0F7FF82C0F8FF000183536B
:102FEA0002E1845307E00900F550EE6E8307F8E228
:102FFA008407F9D787C0F6FF88C0F7FF89C0F8FFB2
:10300A0000018507000E865BBFD71200D9CFE6FF05
:10301A00DACFE6FFE1CFD9FFE2CFDAFFE652E65296
:10302A00E652E652D950F90F566EFF0EDA20576E65
:10303A0056C0DEFFDD6EDECFE6FFDDCFE6FFF90E1E
:10304A00DBCFE6FFFA0EDBCFE6FFFB0EDBCFE6FFB8
:10305A00FC0EDBCFE6FFFD0EDBCFE6FF41EC10F006
:10306A00566E070EE15C02E2E16AE552E16E5650E5
:10307A00020EF3CFDBFF030EF4CFDBFF020EDBCF32
:10308A0056F0030EDBCF57F056C0F3FF57C0F4FFDC
:10309A00040EE15C02E2E16AE552E16EE552E5CF37
:1030AA00DAFFE7CFD9FF1200D9CFE6FFDACFE6FF82
:1030BA00E1CFD9FFE2CFDAFFFB0EDBCF56F0FC0EF1
:1030CA00DBCF57F00001800E57141AE1FB0EDBCF5D
:1030DA00E9FFFC0EDBCFEAFFEECFF3FFEDCFF4FF03
:1030EA00EE2A000EEF22F3CFE9FFF4CFEAFFFD0E3E
:1030FA00DBCFEFFFEF50576AF36E57C0F4FF10D0E3
:10310A00FB0EDB50FE0806E1FD0EDBCFE6FFF9EC15
:10311A001AF005D0FD0EDBCFE6FF37EC1BF0E552C7
:10312A00E552E5CFDAFFE7CFD9FF1200D9CFE6FFA4
:10313A00DACFE6FFE1CFD9FFE2CFDAFFAC6AAB6ABA
:10314A00FD0EDBB0AC88DBA202D0AC8CAB8CDBB45E
:10315A00AC8EDBA602D0AB8801D0AB8ADBA802D04A
:10316A00AC8401D0AC949E98DBAC02D09D8A01D08D
:10317A009D9A9E9ADBAE02D09D8801D09D98FB0E47
:10318A00DB50AF6EFB0EFC0EDBCF57F057C056F08C
:10319A00576A5650B06EAC8AAB8EE552E5CFDAFF6D
:1031AA00E7CFD9FF120046504B02F3CF42F0F4CFDB
:1031BA0043F04C02F3504326000EF420446E46506E
:1031CA004D02F3504426000EF420456E46504E023E
:1031DA00F350452647504B02F3504326F4504422FD
:1031EA00000E452247504C02F3504426F450452223
:1031FA0047504D02F350452648504B02F35044269F
:10320A00F450452248504C02F350452649504B028F
:10321A00F35045261200D9CFE6FFDACFE6FFE1CF19
:10322A00D9FFE2CFDAFFC26AC16AC06AFC0EDB408C
:10323A007F0B3C0BC26EFB0EDB50C16EFC0EDB3803
:10324A00F00B300BC112FD0EDB50800BC06EFD0E71
:10325A00DB380F0B070BC012FD0EDB50040DF350C9
:10326A00380BC012FC0EDBAE03D09E9C9D8CF28CF8
:10327A00C280E552E5CFDAFFE7CFD9FF1200FE0E92
:10328A00E3CFE9FFFF0EE3CFEAFFF36AF46AEE52F7
:10329A0003E0F34AF42AFBD71200FF0EE3CFF8FF4C
:1032AA00E552FF0EE3CFF7FFE552FF0EE3CFF6FF3D
:1032BA00E552E66AE66AE66A0900F55209E0FD0E99
:1032CA00E32A05E1FE0EE32A02E1FF0EE32AF4D720
:1032DA00FD0EE3CF47F0FE0EE3CF48F0FF0EE3CF3B
:1032EA0049F01200D9CFE6FFDACFE6FFE1CFD9FFE6
:1032FA00E2CFDAFFFB0EDBCFF3FFDB06F350000968
:10330A001DE02BEC1BF0E66EFC0EDBCFE9FFDB2A9F
:10331A00FD0EDBCFEAFF01E3DB2AE552E750EF6E51
:10332A00C5B6FED7A1A602D0FF0E09D0FB0EDB5010
:10333A00E1E0C59AC588C5A8DDD7FDD7000EE552DC
:10334A00E5CFDAFFE7CFD9FF1200D9CFE6FFDACF10
:10335A00E6FFE1CFD9FFE2CFDAFFACA2FED7FB0E40
:10336A00DBCFF6FFFC0EDBCFF7FFFD0EDBCFF8FF5E
:10337A000800F550E66EB2EC1AF0E552D950FB0F90
:10338A00E96EFF0EDA20EA6EEFCFF6FFEE2AEFCFF4
:10339A00F7FF000EEE22EFCFF8FFEE220800F550FD
:1033AA00DCE1E552E5CFDAFFE7CFD9FF120049C0E9
:1033BA0055F048C054F048504D02F4CF47F0F3CFCF
:1033CA0046F049504E02F4CF49F0F3CF48F04D028F
:1033DA00F3504726F4504822E86A492254504E02D4
:1033EA00F3504726F4504822E86A49224EAE02EFCB
:1033FA001AF05450485E5550495A55AE000C4D507B
:10340A00485E4E50495A000C456A446A436A426A09
:10341A00200EE76ED8904636473648364936423649
:10342A004336443645364B50425C4C5043584D5017
:10343A0044584E50455809E34B50425E4C50435A4B
:10344A004D50445A4E50455A462AE72EE4D71200A8
:10345A00D9CFE6FFDACFE6FFE1CFD9FFE2CFDAFF35
:10346A00E652E652C350DF6E010EC4CFDBFFDECF59
:10347A0056F0DDCF57F056C0F3FF57C0F4FFE552C0
:10348A00E552E552E5CFDAFFE7CFD9FF1200D9CFEF
:10349A00E6FFDACFE6FFE1CFD9FFE2CFDAFFFD0E92
:1034AA00DB507F0BD56ED76AD66AF294FD0EDBAE7F
:1034BA0002D0F28A01D0F29AD58EE552E5CFDAFF30
:1034CA00E7CFD9FF1200D9CFE6FFDACFE6FFE1CF87
:1034DA00D9FFE2CFDAFF3F0EC716C66AC56AFD0EEC
:1034EA00DB50C612FC0EDB50C71294869488C68A3B
:1034FA00E552E5CFDAFFE7CFD9FF1200D9CFE6FFD1
:10350A00DACFE6FFE1CFD9FFE2CFDAFFFD0EDB50DB
:10351A00C96EC6AE02D0FF0E03D0C7B0FED7000EEA
:10352A00E552E5CFDAFFE7CFD9FF1200FF0EE350ED
:10353A00646EEF0E01D0F30EE76EE72EA2EF1AF0DB
:10354A000C0E636EE76AE72EA8EF1AF0632EA7EF58
:10355A001AF0642EA0EF1AF01200D9CFE6FFDACFE4
:10356A00E6FFE1CFD9FFE2CFDAFFACAC04D0AC90F2
:10357A0000018AB3AC80FD0EDB50AD6EE552E5CF9B
:10358A00DAFFE7CFD9FF1200F36AF46AFF0EE124EB
:10359A00E96EFF0EE220EA6EED6607D02F0EEF64A9
:1035AA0004D03A0EEF6001D0F32A1200FF0EE35066
:1035BA00646E480E01D04C0EE76EE72EFED7E76A1E
:1035CA00E72EFED7642EF7D7000012001EEE00F099
:1035DA002EEE00F0F86A519CBCEC17F038EC1BF0A8
:1035EA00B5EC02F0FBD71200FF0EE350ACBA04D0E0
:1035FA00AF6AAB8EAC8A949CACA2FED7AD6EF36E6A
:10360A00F46A1200456A080EE76ED89049364536C4
:10361A004E50455C02E3456E492AE72EF7D7120061
:10362A000001024C545C0204010202110809000064
:10363A000000000000020701020700303132333473
:10364A00353637383961626364656600C586C7A056
:10365A00FED7C9501200C250020B01E0010E12003F
:10366A00C282120012001200FFFFFFFFFFFFFFFFDE
:10BF3800EBEF1AF01200FFFF240EAC6E0A0EAF6E84
:10BF4800900EAB6E46D8C10853E14E0EAD6E4B0E47
:10BF5800AD6E006A3ED8F86E076E3BD8F76EA96ED4
:10BF680038D8F66EA86E35D8016E012A00EE09F0B1
:10BF7800F56E2FD8EC6E012EFBD700661FD007ACEC
:10BF880003D0040E1ED818D007AE04D00C00C40E7F
:10BF980018D812D0940E15D80A00080E056E00EEB7
:10BFA8000AF0080E066EEE50F56E0F00062EFBD74F
:10BFB800840E07D8052EF5D7A694C9D74E0EAD6EB8
:10BFC800C8D7A66E550EA76EAA0EA76EA682000049
:10BFD80012000B0E026E036A046A9EAA03D0AE50CA
:10BFE80000261200042EF9D7032EF6D7022EF3D717
:08BFF800AB9E9ED7FFFFFFFF87
:020000040020DA
:020000040030CA
:0E00000000021900008480000FC00FE00F0006
:0200000400F00A
:00000001FF